:020000040800F2
:100000000028002069160008C5140008CB14000859
:10001000D1140008D7140008DD1400080000000007
:10002000000000000000000000000000E3140008D1
:10003000EF14000800000000FB140008071500087A
:10004000B1160008B1160008B1160008B116000874
:10005000B1160008B1160008B1160008B116000864
:10006000B1160008B1160008B1160008B116000854
:10007000B1160008B1160008B1160008B116000844
:10008000B1160008B1160008B1160008B116000834
:10009000B1160008B1160008B1160008B116000824
:1000A000B1160008B1160008B1160008B116000814
:1000B00015150008B116000800000000B116000870
:1000C000B11600080000000000000000B116000892
:1000D00000000000B1160008B11600080000000082
:1000E000B1160008B1160008B116000800000000A3
:1000F0000000000000000000000000000000000000
:0C01000000000000000000005FF808F1A3
:10010C0010B5054C237833B9044B13B10448AFF345
:10011C0000800123237010BD5C0000200000000053
:10012C00082D000808B5034B1BB103490348AFF376
:10013C00008008BD0000000060000020082D0008B1
:10014C0080B500AF2A4B1B680133294A1360284B3A
:10015C001B68042B02DD264B01221A60244B1B6802
:10016C00013B032B41D801A252F823F0890100086E
:10017C0097010008B7010008D70100081D4B0022A9
:10018C001A60002000F002FD30E01B4B1B68194A7E
:10019C001360194B1B68194A82FB03125211DB17AF
:1001AC00D31A184600F0F2FC20E0154B1B68114ADC
:1001BC001360134B1B68114A82FB03125211DB179D
:1001CC00D31A184600F0E2FC10E00E4B1B68094AEB
:1001DC0013600C4B1B68094A82FB03125211DB178C
:1001EC00D31A184600F0D2FC00E000BF00BF80BD5F
:1001FC0048000020800000203C0000201F85EB51AF
:10020C00440000204000002080B500AF1F4B1B684D
:10021C001F4A13601F4B1B681C4A136001211E48A8
:10022C0001F02CFD03461A461A4B1A60174B1A683C
:10023C00184B1B689A4226D1144B1A68144B1B6836
:10024C009A4220D1124B1A68144B1B689A420ED05A
:10025C000F4B1B68114A1360104B1B68002B12D1FB
:10026C000F4B4FF4FA721A60FFF76AFF0BE00C4B5E
:10027C001B68013B0A4A1360094B1B68002B02D117
:10028C00064B01221A6000BF80BD00BF0400002095
:10029C000800002000000020000C01400C00002091
:1002AC001000002080B500AF084B1B686433074A70
:1002BC001360064B1B68064A82FB03125211DB17B4
:1002CC00D31A184600F062FC00BF80BD80000020ED
:1002DC001F85EB5180B500AF1F4B1B681F4A136085
:1002EC001F4B1B681C4A136002211E4801F0C6FC00
:1002FC0003461A461A4B1A60174B1A68184B1B68A0
:10030C009A4226D1144B1A68144B1B689A4220D17E
:10031C00124B1A68144B1B689A420ED00F4B1B6879
:10032C00114A1360104B1B68002B12D10F4B4FF46A
:10033C00FA721A60FFF7B6FF0BE00C4B1B68013B1F
:10034C000A4A1360094B1B68002B02D1064B012291
:10035C001A6000BF80BD00BF180000201C000020E8
:10036C0014000020000C014020000020240000207C
:10037C0080B400AF134B1B68013B032B1DD801A2AB
:10038C0052F823F0A1030008A9030008B3030008E6
:10039C00BD0300080C4B00221A600FE00A4B1B68CF
:1003AC000A4A13600AE0084B1B68094A136005E00F
:1003BC00054B1B68074A136000E000BF00BFBD4639
:1003CC0080BC704748000020800000203C000020CA
:1003DC00440000204000002080B500AF1F4B1B687C
:1003EC001F4A13601F4B1B681C4A136004211E48D4
:1003FC0001F044FC03461A461A4B1A60174B1A6854
:10040C00184B1B689A4226D1144B1A68144B1B6864
:10041C009A4220D1124B1A68144B1B689A420ED088
:10042C000F4B1B68114A1360104B1B68002B12D129
:10043C000F4B4FF4FA721A60FFF79AFF0BE00C4B5C
:10044C001B68013B0A4A1360094B1B68002B02D145
:10045C00064B01221A6000BF80BD00BF2C0000209B
:10046C003000002028000020000C01403400002047
:10047C003800002080B582B000AF78607B68002B1C
:10048C0027D100224021D24801F00FFC002280210C
:10049C00CF4801F00AFC00224FF48071CC4801F0E7
:1004AC0004FC00224FF40071C94801F0FEFB00224D
:1004BC004FF48061C64801F0F8FB00224FF4006154
:1004CC00C34801F0F2FB01224FF48051C04801F007
:1004DC00ECFB7B68012B27D101224021BC4801F0A9
:1004EC00E4FB00228021BA4801F0DFFB00224FF42C
:1004FC008071B74801F0D9FB01224FF40071B44868
:10050C0001F0D3FB01224FF48061B14801F0CDFB27
:10051C0001224FF40061AE4801F0C7FB01224FF4F9
:10052C008051AB4801F0C1FB7B68022B27D1002224
:10053C004021A74801F0B9FB00228021A44801F01A
:10054C00B4FB01224FF48071A14801F0AEFB0022F4
:10055C004FF400719E4801F0A8FB00224FF480611B
:10056C009B4801F0A2FB01224FF40061984801F076
:10057C009CFB00224FF48051954801F096FB7B6860
:10058C00032B27D100224021914801F08EFB002241
:10059C0080218F4801F089FB00224FF480718C4838
:1005AC0001F083FB00224FF40071894801F07DFBC0
:1005BC0001224FF48061864801F077FB01224FF451
:1005CC000061834801F071FB00224FF48051804898
:1005DC0001F06BFB7B68042B27D1012240217C4866
:1005EC0001F063FB00228021794801F05EFB0022C0
:1005FC004FF48071764801F058FB01224FF40071E2
:10060C00734801F052FB01224FF48061704801F0F5
:10061C004CFB00224FF400616D4801F046FB0022B8
:10062C004FF480516A4801F040FB7B68052B27D1C1
:10063C0000224021664801F038FB012280216448E9
:10064C0001F033FB00224FF48071614801F02DFB67
:10065C0000224FF400715E4801F027FB01224FF499
:10066C0080615B4801F021FB00224FF40061584887
:10067C0001F01BFB00224FF48051554801F015FB93
:10068C007B68062B27D100224021514801F00DFB3D
:10069C00012280214E4801F008FB00224FF48071AA
:1006AC004B4801F002FB00224FF40071484801F066
:1006BC00FCFA00224FF48061454801F0F6FA002262
:1006CC004FF40061424801F0F0FA00224FF48051DF
:1006DC003F4801F0EAFA7B68072B27D10022402122
:1006EC003B4801F0E2FA00228021394801F0DDFAA2
:1006FC0000224FF48071364801F0D7FA01224FF4F2
:10070C000071334801F0D1FA01224FF48061304876
:10071C0001F0CBFA01224FF400612D4801F0C5FA2B
:10072C0001224FF480512A4801F0BFFA7B68082B54
:10073C0027D100224021264801F0B7FA002280215F
:10074C00234801F0B2FA00224FF48071204801F0E6
:10075C00ACFA00224FF400711D4801F0A6FA0022F9
:10076C004FF480611A4801F0A0FA00224FF40061A6
:10077C00174801F09AFA00224FF48051144801F006
:10078C0094FA7B68092B2AD100224021104801F0F1
:10079C008CFA002280210E4801F087FA00224FF4D7
:1007AC0080710B4801F081FA00224FF40071084867
:1007BC0001F07BFA01224FF48061054801F075FAD3
:1007CC0000224FF40061024801F06FFA002201E0B0
:1007DC00000801404FF48051034801F066FA00BF55
:1007EC000837BD4680BD00BF0008014080B582B00F
:1007FC0000AF78607B68002B29D100224FF4007188
:10080C00D34801F052FA00224FF48061D04801F035
:10081C004CFA00224FF40061CD4801F046FA002258
:10082C004FF48051CA4801F040FA00224FF40051B5
:10083C00C74801F03AFA00224FF48041C44801F055
:10084C0034FA01224FF40041C14801F02EFA7B68C2
:10085C00012B29D101224FF40071BD4801F025FA7A
:10086C0000224FF48061BA4801F01FFA00224FF4C5
:10087C000061B74801F019FA01224FF48051B448D5
:10088C0001F013FA01224FF40051B14801F00DFAB6
:10089C0001224FF48041AE4801F007FA01224FF4D7
:1008AC000041AB4801F001FA7B68022B29D10022F0
:1008BC004FF40071A64801F0F8F900224FF4806162
:1008CC00A34801F0F2F901224FF40061A04801F0B5
:1008DC00ECF900224FF480519D4801F0E6F900221A
:1008EC004FF400519A4801F0E0F901224FF4804195
:1008FC00974801F0DAF900224FF40041944801F0D6
:10090C00D4F97B68032B29D100224FF40071904855
:10091C0001F0CBF900224FF480618D4801F0C5F94C
:10092C0000224FF400618A4801F0BFF900224FF415
:10093C008051874801F0B9F901224FF400518448E5
:10094C0001F0B3F901224FF48041814801F0ADF977
:10095C0000224FF400417E4801F0A7F97B68042B7C
:10096C0029D101224FF40071794801F09EF900223F
:10097C004FF48061764801F098F900224FF4006141
:10098C00734801F092F901224FF48051704801F044
:10099C008CF901224FF400516D4801F086F90022C8
:1009AC004FF480416A4801F080F900224FF4004175
:1009BC00674801F07AF97B68052B29D100224FF4A6
:1009CC000071634801F071F901224FF480616048B5
:1009DC0001F06BF900224FF400615D4801F065F9FC
:1009EC0000224FF480515A4801F05FF901224FF474
:1009FC000051574801F059F900224FF480415448F6
:100A0C0001F053F900224FF40041514801F04DF927
:100A1C007B68062B29D100224FF400714C4801F061
:100A2C0044F901224FF48061494801F03EF900225B
:100A3C004FF40061464801F038F900224FF4805120
:100A4C00434801F032F900224FF40051404801F0C4
:100A5C002CF900224FF480413D4801F026F9002288
:100A6C004FF400413A4801F020F97B68072B29D15B
:100A7C0000224FF40071364801F017F900224FF4B0
:100A8C008061334801F011F900224FF400613048C5
:100A9C0001F00BF901224FF480512D4801F005F9BA
:100AAC0001224FF400512A4801F0FFF801224FF4C3
:100ABC008041274801F0F9F801224FF40041244805
:100ACC0001F0F3F87B68082B29D100224FF4007158
:100ADC001F4801F0EAF800224FF480611C4801F035
:100AEC00E4F800224FF40061194801F0DEF800220E
:100AFC004FF48051164801F0D8F800224FF4005101
:100B0C00134801F0D2F800224FF48041104801F054
:100B1C00CCF800224FF400410D4801F0C6F87B6878
:100B2C00092B2CD100224FF40071094801F0BDF8BB
:100B3C0000224FF48061064801F0B7F800224FF410
:100B4C000061034801F0B1F800224FF4805101E03C
:100B5C00000C01400C4801F0A8F801224FF40051A0
:100B6C00094801F0A2F800224FF48041064801F038
:100B7C009CF800224FF40041034801F096F800BFA6
:100B8C000837BD4680BD00BF000C014080B582B067
:100B9C0000AF78607B68002B24D100224FF4004119
:100BAC00C64801F082F800220821C54801F07DF802
:100BBC0000221021C24801F078F800222021C04800
:100BCC0001F073F800224021BD4801F06EF80022BC
:100BDC008021BB4801F069F801224FF48071B848BC
:100BEC0001F063F87B68012B24D101224FF4004102
:100BFC00B24801F05AF800220821B14801F055F82A
:100C0C0000221021AE4801F050F801222021AC48FE
:100C1C0001F04BF801224021A94801F046F80122CD
:100C2C008021A74801F041F801224FF48071A448BB
:100C3C0001F03BF87B68022B24D100224FF40041D9
:100C4C009E4801F032F8002208219D4801F02DF851
:100C5C00012210219A4801F028F8002220219848FE
:100C6C0001F023F800224021954801F01EF80122E2
:100C7C008021934801F019F800224FF480719048BC
:100C8C0001F013F87B68032B24D100224FF40041B0
:100C9C008A4801F00AF800220821894801F005F879
:100CAC0000221021864801F000F8002220218448FF
:100CBC0000F0FBFF01224021814800F0F6FF0122E9
:100CCC0080217F4800F0F1FF00224FF480717C48B6
:100CDC0000F0EBFF7B68042B24D101224FF4004180
:100CEC00764800F0E2FF00220821754800F0DDFF95
:100CFC0000221021724800F0D8FF012220217048F8
:100D0C0000F0D3FF012240216D4800F0CEFF0022FD
:100D1C0080216B4800F0C9FF00224FF480716848B5
:100D2C0000F0C3FF7B68052B24D100224FF4004157
:100D3C00624800F0BAFF01220821614800F0B5FFBB
:100D4C00002210215E4800F0B0FF002220215C48F8
:100D5C0000F0ABFF01224021594800F0A6FF002211
:100D6C008021574800F0A1FF00224FF480715448B5
:100D7C0000F09BFF7B68062B24D100224FF400412E
:100D8C004E4800F092FF012208214D4800F08DFFE3
:100D9C00002210214A4800F088FF002220214848F8
:100DAC0000F083FF00224021454800F07EFF002226
:100DBC008021434800F079FF00224FF480714048B5
:100DCC0000F073FF7B68072B24D100224FF4004105
:100DDC003A4800F06AFF00220821394800F065FF0C
:100DEC0000221021364800F060FF012220213448F7
:100DFC0000F05BFF01224021314800F056FF012238
:100E0C0080212F4800F051FF01224FF480712C48B3
:100E1C0000F04BFF7B68082B24D100224FF40041DB
:100E2C00264800F042FF00220821254800F03DFF33
:100E3C0000221021224800F038FF002220212048F7
:100E4C0000F033FF002240211D4800F02EFF00224D
:100E5C0080211B4800F029FF00224FF480711848B4
:100E6C0000F023FF7B68092B24D100224FF40041B2
:100E7C00124800F01AFF00220821114800F015FF5B
:100E8C00002210210E4800F010FF002220210C48F7
:100E9C0000F00BFF01224021094800F006FF002260
:100EAC008021074800F001FF00224FF480710448B4
:100EBC0000F0FBFE00BF0837BD4680BD00080140B6
:100ECC00000C014080B500AF3A4B1B68013B032B73
:100EDC0067D801A252F823F0F50E0008070F00089E
:100EEC003F0F0008770F0008324B02221A60324B7A
:100EFC001B68184600F022FA5AE0002201212F4804
:100F0C0000F0D3FE012204212C4800F0CEFE012279
:100F1C0002212A4800F0C9FE294B1B68012B42D143
:100F2C00244B03221A60274B1B68184600F006FA64
:100F3C0039E001220121214800F0B7FE00220421F2
:100F4C001E4800F0B2FE012202211C4800F0ADFE4A
:100F5C001B4B1B68012B28D1164B04221A601A4B11
:100F6C001B68184600F0EAF91FE001220121134822
:100F7C0000F09BFE01220421104800F096FE002296
:100F8C0002210E4800F091FE0D4B1B68012B0ED177
:100F9C00084B02221A60084B1B68184600F0CEF969
:100FAC0005E000BF04E000BF02E000BF00E000BFAE
:100FBC0000BF80BD780000203C00002000080140EC
:100FCC0088000020400000204400002080B500AFC5
:100FDC003A4B1B68013B032B67D801A252F823F054
:100FEC00FD0F00080F100008471000087F100008C4
:100FFC00324B03221A60324B1B68184600F0D8F9AA
:10100C005AE0002208212F4800F04FFE0122202137
:10101C002C4800F04AFE012210212A4800F045FE1F
:10102C00294B1B68012B42D1244B03221A60244B01
:10103C001B68184600F0BCF939E001220821214850
:10104C0000F033FE002220211E4800F02EFE01226B
:10105C0010211C4800F029FE1B4B1B68012B28D1CA
:10106C00164B04221A60194B1B68184600F0A0F9A5
:10107C001FE001220821134800F017FE0122202155
:10108C00104800F012FE002210210E4800F00DFE58
:10109C000D4B1B68012B0ED1084B02221A600C4B16
:1010AC001B68184600F084F905E000BF04E000BF9F
:1010BC0002E000BF00E000BF00BF80BD7C0000204C
:1010CC004000002000080140900000204400002057
:1010DC003C00002080B500AF00F0E6FA00F01EF8EE
:1010EC0000F0A4F800F056F8084801F047FA084B55
:1010FC0001221A60074B01221A60074B1B68012B57
:10110C00FBD1FFF7DFFEFFF761FFF6E7940000204D
:10111C00780000207C0000204800002080B590B0B2
:10112C0000AF07F1180328220021184601F0DEFD5C
:10113C003B1D00221A605A609A60DA601A61022321
:10114C00BB610123BB621023FB6200237B6307F1AD
:10115C001803184600F0DAFD0346002B01D000F00E
:10116C00E7F80F237B600023BB600023FB600023A8
:10117C003B6100237B613B1D0021184601F046F8C2
:10118C000346002B01D000F0D3F800BF4037BD461A
:10119C0080BD000080B586B000AF07F108030022C7
:1011AC001A605A609A60DA603B4600221A605A60F4
:1011BC001D4B4FF080421A601B4B41F63F725A6038
:1011CC00194B00229A60184B0922DA60164B002248
:1011DC001A61154B00229A61134801F07FF90346FE
:1011EC00002B01D000F0A4F84FF48053BB6007F142
:1011FC00080319460C4801F015FB0346002B01D0DF
:10120C0000F096F800233B6000237B603B461946B8
:10121C00054801F0DDFC0346002B01D000F088F8F6
:10122C0000BF1837BD4680BD9400002080B586B045
:10123C0000AF07F1080300221A605A609A60DA6066
:10124C00284B9B69274A43F004039361254B9B6908
:10125C0003F004037B607B68224B9B69214A43F0BB
:10126C00080393611F4B9B6903F008033B603B68C9
:10127C00002249F6FF711C4800F017FD00224FF6C2
:10128C00F8711A4800F011FD49F6FF73BB60012399
:10129C00FB6000233B6102237B6107F108031946C5
:1012AC00114800F071FB0723BB600023FB60002397
:1012BC003B6107F1080319460C4800F065FB4FF63B
:1012CC00F873BB600123FB6000233B6102237B614D
:1012DC0007F108031946054800F056FB00BF183704
:1012EC00BD4680BD0010024000080140000C0140CA
:1012FC0080B582B000AF7860FEF786FFFEF7EAFF9C
:10130C00FFF76AF8094B1B681846FFF7B3F8074B51
:10131C001B68012B04D100F025F800F05DF801E00A
:10132C0000F002F900BF0837BD4680BD4800002020
:10133C0080B400AF72B600BFFEE7000080B483B08B
:10134C0000AF7860054A7B681360054B00221A6079
:10135C0000BF0C37BD4680BC704700BF8400002026
:10136C008800002080B500AF0E4B1B68002B0FDDF2
:10137C000C4B1B68013B0B4A13600A4B1B680A4A57
:10138C0082FB03125211DB17D31A1846FFF72EFA01
:10139C00044B1B68002B02D1044B01221A6000BFC6
:1013AC0080BD00BF840000201F85EB518800002009
:1013BC0080B483B000AF7860054A7B681360054B3E
:1013CC0000221A6000BF0C37BD4680BC704700BFBE
:1013DC008C0000209000002080B400AF094B1B68EB
:1013EC00002B04DD074B1B68013B064A1360054BC1
:1013FC001B68002B02D1044B01221A6000BFBD46B2
:10140C0080BC70478C0000209000002080B485B018
:10141C0000AF154B9B69144A43F001039361124BC7
:10142C009B6903F00103BB60BB680F4BDB690E4A81
:10143C0043F08053D3610C4BDB6903F080537B602A
:10144C007B680A4B5B68FB60FB6823F0E063FB6026
:10145C00FB6843F08063FB60044AFB68536000BF89
:10146C001437BD4680BC704700100240000001409C
:10147C0080B584B000AF78607B681B68B3F1804F97
:10148C0013D10C4BDB690B4A43F00103D361094BBD
:10149C00DB6903F00103FB60FB68002200211C20C8
:1014AC0000F03BFA1C2000F054FA00BF1037BD4688
:1014BC0080BD00BF0010024080B400AFFEE780B4D6
:1014CC0000AFFEE780B400AFFEE780B400AFFEE7EC
:1014DC0080B400AFFEE780B400AF00BFBD4680BC57
:1014EC00704780B400AF00BFBD4680BC704780B46D
:1014FC0000AF00BFBD4680BC704780B500AF00F0A8
:10150C0019F900BF80BD000080B500AF024801F0A2
:10151C0081F800BF80BD00BF9400002080B400AFF4
:10152C0000BFBD4680BC704780B500AF484B1B6800
:10153C00022B2BD101220221464800F0B6FB0122DE
:10154C000421444800F0B1FB01221021414800F075
:10155C00ACFB012220213F4800F0A7FB3E4B1B684F
:10156C00002B04DD3C4B1B68013B3B4A13603A4BA0
:10157C001B68002B0ADC384B32221A6001213548DB
:10158C0000F0ABFB0821334800F0A7FB304B1B6885
:10159C00032B2BD1012201212E4800F086FB0122C6
:1015AC0004212C4800F081FB01220821294800F07D
:1015BC007CFB01222021274800F077FB264B1B687F
:1015CC00002B04DD244B1B68013B234A1360224B88
:1015DC001B68002B0ADC204B32221A6002211D48AA
:1015EC0000F07BFB10211B4800F077FB184B1B68AD
:1015FC00042B2BD101220121164800F056FB0122AD
:10160C000221144800F051FB01220821114800F07E
:10161C004CFB012210210F4800F047FB0E4B1B68BE
:10162C00002B04DD0C4B1B68013B0B4A13600A4B6F
:10163C001B68002B0ADC084B32221A600421054877
:10164C0000F04BFB2021034800F047FB00BF80BD9E
:10165C004800002000080140500000200C480D49B3
:10166C000D4A002302E0D458C4500433C4188C42F1
:10167C00F9D30A4A0A4C002301E013600432A24257
:10168C00FBD3FFF74BFF01F00DFBFFF723FD70477A
:10169C00000000205C000020482D00085C000020A9
:1016AC00E0000020FEE7000080B500AF084B1B688F
:1016BC00074A43F010031360032000F023F90F20B6
:1016CC0000F008F8FFF7A2FE0023184680BD00BF0B
:1016DC000020024080B582B000AF7860124B1A68CF
:1016EC00124B1B7819464FF47A73B3FBF1F3B2FB30
:1016FC00F3F3184600F03BF90346002B01D001230D
:10170C000EE07B680F2B0AD8002279684FF0FF306F
:10171C0000F003F9064A7B681360002300E0012304
:10172C0018460837BD4680BD4C00002058000020EC
:10173C005400002080B400AF054B1B781A46054BB3
:10174C001B681344034A136000BFBD4680BC70473E
:10175C0058000020DC00002080B400AF024B1B6856
:10176C001846BD4680BC7047DC00002080B485B0B4
:10177C0000AF78607B6803F00703FB600C4BDB6801
:10178C00BB60BA684FF6FF031340BB60FB681A02DC
:10179C00BB68134343F0BF6343F40033BB60044A9C
:1017AC00BB68D36000BF1437BD4680BC704700BF18
:1017BC0000ED00E080B400AF044BDB681B0A03F0C3
:1017CC0007031846BD4680BC704700BF00ED00E023
:1017DC0080B483B000AF0346FB7197F90730002B40
:1017EC000BDBFB7903F01F02064997F907305B0905
:1017FC00012000FA02F241F8232000BF0C37BD464D
:10180C0080BC704700E100E080B483B000AF0346B9
:10181C003960FB7197F90730002B0ADB3B68DAB2B1
:10182C000C4997F907301201D2B20B4483F800230C
:10183C000AE03B68DAB20849FB7903F00F03043B7A
:10184C001201D2B20B441A7600BF0C37BD4680BCD5
:10185C00704700BF00E100E000ED00E080B489B00B
:10186C0000AFF860B9607A60FB6803F00703FB61B6
:10187C00FB69C3F10703042B28BF0423BB61FB697D
:10188C000433062B02D9FB69033B00E000237B6188
:10189C004FF0FF32BB6902FA03F3DA43BB681A401C
:1018AC007B699A404FF0FF317B6901FA03F3D9430E
:1018BC007B680B40134318462437BD4680BC7047E9
:1018CC0080B582B000AF78607B68013BB3F1807F5C
:1018DC0001D301230FE00A4A7B68013B53600F21BF
:1018EC004FF0FF30FFF790FF054B00229A60044B3E
:1018FC0007221A60002318460837BD4680BD00BF7A
:10190C0010E000E080B582B000AF78607868FFF737
:10191C002DFF00BF0837BD4680BD80B586B000AF37
:10192C000346B9607A60FB7300237B61FFF742FFCB
:10193C0078617A68B9687869FFF790FF024697F981
:10194C000F3011461846FFF75FFF00BF1837BD4632
:10195C0080BD80B582B000AF0346FB7197F90730AC
:10196C001846FFF735FF00BF0837BD4680BD80B570
:10197C0082B000AF78607868FFF7A2FF0346184684
:10198C000837BD4680BD000080B48BB000AF7860D6
:10199C00396000237B6200233B6248E101227B6AB1
:1019AC0002FA03F3FB613B681B68FA691340BB61E5
:1019BC00BA69FB699A4240F037813B685B68A34A7D
:1019CC0093425ED0A14A934275D8A14A934258D013
:1019DC009F4A93426FD89F4A934252D09D4A93425A
:1019EC0069D89D4A93424CD09B4A934263D89B4AF8
:1019FC00934246D0994A93425DD8122B2AD8122B87
:101A0C0059D801A252F823F08F1A0008691A00085D
:101A1C007B1A0008BD1A0008C31A0008C31A000874
:101A2C00C31A0008C31A0008C31A0008C31A000816
:101A3C00C31A0008C31A0008C31A0008C31A000806
:101A4C00C31A0008C31A0008C31A0008711A000848
:101A5C00851A0008824A934213D02CE03B68DB685D
:101A6C003B6229E03B68DB6804333B6224E03B6863
:101A7C00DB6808333B621FE03B68DB680C333B627E
:101A8C001AE03B689B68002B02D104233B6213E0F5
:101A9C003B689B68012B05D108233B627B68FA6984
:101AAC001A6109E008233B627B68FA695A6103E01A
:101ABC0000233B6200E000BFBB69FF2B01D87B68B1
:101ACC0001E07B6804337B61BB69FF2B02D87B6A26
:101ADC009B0002E07B6A083B9B003B617B691A68B8
:101AEC000F213B6901FA03F3DB431A40396A3B6966
:101AFC0001FA03F31A437B691A603B685B6803F0D5
:101B0C008053002B00F09080564B9B69554A43F054
:101B1C0001039361534B9B6903F00103BB60BB68EA
:101B2C00514A7B6A9B08023352F82330FB607B6A74
:101B3C0003F003039B000F2202FA03F3DB43FA6862
:101B4C001340FB607B68494A93420DD07B68484A3E
:101B5C00934207D07B68474A934201D1022304E0A9
:101B6C00032302E0012300E000237A6A02F003025F
:101B7C0092009340FA681343FB603B497B6A9B08D5
:101B8C000233FA6841F823203B685B6803F4803326
:101B9C00002B06D0384B1A683749BB6913430B60CE
:101BAC0006E0354B1A68BB69DB43334913400B60C5
:101BBC003B685B6803F40033002B06D02E4B5A684D
:101BCC002D49BB6913434B6006E02B4B5A68BB692C
:101BDC00DB43294913404B603B685B6803F480137B
:101BEC00002B06D0244B9A682349BB6913438B60A6
:101BFC0006E0214B9A68BB69DB431F4913408B609D
:101C0C003B685B6803F40013002B06D01A4BDA68B0
:101C1C001949BB691343CB6006E0174BDA68BB6903
:101C2C00DB4315491340CB607B6A01337B623B6815
:101C3C001A687B6A22FA03F3002B7FF4AFAE00BF65
:101C4C0000BF2C37BD4680BC704700BF000032106F
:101C5C0000003110000022100000211000001210B2
:101C6C00000011100010024000000140000801406B
:101C7C00000C0140001001400004014080B485B00C
:101C8C0000AF78600B467B807B689A687B8813403A
:101C9C00002B02D00123FB7301E00023FB73FB7BC1
:101CAC0018461437BD4680BC704780B483B000AF73
:101CBC0078600B467B8013467B707B78002B03D0BF
:101CCC007A887B681A6103E07B881A047B681A6146
:101CDC0000BF0C37BD4680BC704780B485B000AFE8
:101CEC0078600B467B807B68DB68FB607A88FB68DE
:101CFC0013401A04FB68D9437B880B401A437B685A
:101D0C001A6100BF1437BD4680BC704780B586B0E1
:101D1C0000AF78607B68002B01D101236CE27B68FB
:101D2C001B6803F00103002B00F08780924B5B686B
:101D3C0003F00C03042B0CD08F4B5B6803F00C03EB
:101D4C00082B12D18C4B5B6803F48033B3F5803FC6
:101D5C000BD1894B1B6803F40033002B6CD07B68D0
:101D6C005B68002B68D1012346E27B685B68B3F5A6
:101D7C00803F06D1804B1B687F4A43F4803313604D
:101D8C002EE07B685B68002B0CD17B4B1B687A4A7E
:101D9C0023F480331360784B1B68774A23F4802339
:101DAC0013601DE07B685B68B3F5A02F0CD1724B00
:101DBC001B68714A43F4802313606F4B1B686E4A97
:101DCC0043F4803313600BE06B4B1B686A4A23F4BB
:101DDC0080331360684B1B68674A23F480231360BD
:101DEC007B685B68002B13D0FFF7B6FC386108E00A
:101DFC00FFF7B2FC02463B69D31A642B01D90323CB
:101E0C00FAE15D4B1B6803F40033002BF0D014E0B7
:101E1C00FFF7A2FC386108E0FFF79EFC02463B6925
:101E2C00D31A642B01D90323E6E1534B1B6803F44B
:101E3C000033002BF0D100E000BF7B681B6803F07F
:101E4C000203002B63D04C4B5B6803F00C03002B9C
:101E5C000BD0494B5B6803F00C03082B1CD1464B91
:101E6C005B6803F48033002B16D1434B1B6803F0E3
:101E7C000203002B05D07B681B69012B01D00123C9
:101E8C00BAE13D4B1B6823F0F8027B685B69DB0011
:101E9C00394913430B603AE07B681B69002B20D057
:101EAC00364B01221A60FFF757FC386108E0FFF748
:101EBC0053FC02463B69D31A022B01D903239BE145
:101ECC002D4B1B6803F00203002BF0D02A4B1B6830
:101EDC0023F0F8027B685B69DB00274913430B6036
:101EEC0015E0264B00221A60FFF736FC386108E03B
:101EFC00FFF732FC02463B69D31A022B01D90323AC
:101F0C007AE11D4B1B6803F00203002BF0D17B68B8
:101F1C001B6803F00803002B3AD07B689B69002BED
:101F2C0019D0174B01221A60FFF716FC386108E034
:101F3C00FFF712FC02463B69D31A022B01D903238B
:101F4C005AE10D4B5B6A03F00203002BF0D0012029
:101F5C0000F0A6FA1CE00A4B00221A60FFF7FCFB0B
:101F6C0038610FE0FFF7F8FB02463B69D31A022BEE
:101F7C0008D9032340E100BF001002400000424298
:101F8C00800442429E4B5B6A03F00203002BE9D1B2
:101F9C007B681B6803F00403002B00F0A680002371
:101FAC00FB75974BDB6903F08053002B0DD1944BE1
:101FBC00DB69934A43F08053D361914BDB6903F0A7
:101FCC008053BB60BB680123FB758E4B1B6803F40D
:101FDC008073002B18D18B4B1B688A4A43F4807397
:101FEC001360FFF7B9FB386108E0FFF7B5FB024659
:101FFC003B69D31A642B01D90323FDE0814B1B6889
:10200C0003F48073002BF0D07B68DB68012B06D1C6
:10201C007B4B1B6A7A4A43F0010313622DE07B6809
:10202C00DB68002B0CD1764B1B6A754A23F001033D
:10203C001362734B1B6A724A23F0040313621CE095
:10204C007B68DB68052B0CD16D4B1B6A6C4A43F02B
:10205C00040313626A4B1B6A694A43F0010313625F
:10206C000BE0674B1B6A664A23F001031362644B57
:10207C001B6A634A23F0040313627B68DB68002B42
:10208C0015D0FFF769FB38610AE0FFF765FB0246E4
:10209C003B69D31A41F28832934201D90323ABE056
:1020AC00574B1B6A03F00203002BEED014E0FFF732
:1020BC0053FB38610AE0FFF74FFB02463B69D31A2A
:1020CC0041F28832934201D9032395E04C4B1B6AB1
:1020DC0003F00203002BEED1FB7D012B05D1484B05
:1020EC00DB69474A23F08053D3617B68DB69002BA3
:1020FC0000F08180424B5B6803F00C03082B61D02D
:10210C007B68DB69022B46D13F4B00221A60FFF73C
:10211C0023FB386108E0FFF71FFB02463B69D31A2B
:10212C00022B01D9032367E0354B1B6803F00073C6
:10213C00002BF0D17B681B6AB3F5803F08D1304B84
:10214C005B6823F400327B689B682D4913434B601A
:10215C002B4B5B6823F474127B68196A7B685B6A8F
:10216C000B43274913434B60274B01221A60FFF79F
:10217C00F3FA386108E0FFF7EFFA02463B69D31A2D
:10218C00022B01D9032337E01D4B1B6803F00073AE
:10219C00002BF0D02FE01C4B00221A60FFF7DCFA6A
:1021AC00386108E0FFF7D8FA02463B69D31A022BD4
:1021BC0001D9032320E0124B1B6803F00073002BA2
:1021CC00F0D118E07B68DB69012B01D1012313E00E
:1021DC000B4B5B68FB60FB6803F480327B681B6A0B
:1021EC009A4206D1FB6803F470127B685B6A9A42D0
:1021FC0001D0012300E0002318461837BD4680BDEE
:10220C0000100240007000406000424280B584B073
:10221C0000AF786039607B68002B01D10123D0E0DE
:10222C006A4B1B6803F007033A689A4210D9674B54
:10223C001B6823F0070265493B6813430B60634B33
:10224C001B6803F007033A689A4201D00123B8E0F7
:10225C007B681B6803F00203002B20D07B681B6893
:10226C0003F00403002B05D0594B5B68584A43F428
:10227C00E06353607B681B6803F00803002B05D0F8
:10228C00534B5B68524A43F460535360504B5B684A
:10229C0023F0F0027B689B684D4913434B607B68CD
:1022AC001B6803F00103002B40D07B685B68012B9B
:1022BC0007D1474B1B6803F40033002B15D10123C6
:1022CC007FE07B685B68022B07D1414B1B6803F0F6
:1022DC000073002B09D1012373E03D4B1B6803F005
:1022EC000203002B01D101236BE0394B5B6823F017
:1022FC0003027B685B68364913434B60FFF72CFA8B
:10230C00F8600AE0FFF728FA0246FB68D31A41F29C
:10231C008832934201D9032353E02D4B5B6803F0C1
:10232C000C027B685B689B009A42EBD1274B1B68C5
:10233C0003F007033A689A4210D2244B1B6823F02F
:10234C00070222493B6813430B60204B1B6803F0C8
:10235C0007033A689A4201D0012332E07B681B687C
:10236C0003F00403002B08D0194B5B6823F4E062E4
:10237C007B68DB68164913434B607B681B6803F072
:10238C000803002B09D0124B5B6823F460527B6866
:10239C001B69DB000E4913434B6000F021F8024629
:1023AC000B4B5B681B0903F00F030A49CB5C22FA49
:1023BC0003F3094A1360094B1B681846FFF78AF9A7
:1023CC00002318461037BD4680BD00BF00200240D8
:1023DC0000100240302D00084C000020540000205A
:1023EC0090B48AB000AF2A4B3C1D0FCB84E80F0091
:1023FC0040F201233B800023FB610023BB610023DF
:10240C007B6200237B6100233B62224B5B68FB6198
:10241C00FB6903F00C03042B02D0082B03D02DE036
:10242C001D4B3B622DE0FB699B0C03F00F0307F186
:10243C002802134413F8243C7B61FB6903F48033BA
:10244C00002B13D0134B5B685B0C03F0010307F1FB
:10245C002802134413F8283CBB617B690E4A02FB2B
:10246C0003F2BB69B2FBF3F37B6204E07B690B4ABA
:10247C0002FB03F37B627B6A3B6202E0064B3B622E
:10248C0000BF3B6A18462837BD4690BC704700BF5A
:10249C00202D00080010024000127A0000093D00B7
:1024AC0080B485B000AF78600A4B1B680A4AA2FB67
:1024BC0003235B0A7A6802FB03F3FB6000BFFB6833
:1024CC005A1EFA60002BF9D100BF00BF1437BD466D
:1024DC0080BC70474C000020D34D621080B582B098
:1024EC0000AF78607B68002B01D1012341E07B6851
:1024FC0093F83D30DBB2002B06D17B68002283F8C9
:10250C003C207868FEF7B4FF7B68022283F83D20FC
:10251C007B681A687B6804331946104600F06AFA27
:10252C007B68012283F846207B68012283F83E20D9
:10253C007B68012283F83F207B68012283F84020CE
:10254C007B68012283F841207B68012283F84220BA
:10255C007B68012283F843207B68012283F84420A6
:10256C007B68012283F845207B68012283F83D209B
:10257C00002318460837BD4680BD000080B485B0E6
:10258C0000AF78607B6893F83D30DBB2012B01D053
:10259C00012335E07B68022283F83D207B681B68B1
:1025AC00DA687B681B6842F00102DA607B681B68A2
:1025BC00164A934209D07B681B68B3F1804F04D054
:1025CC007B681B68124A934211D17B681B689B681D
:1025DC0003F00703FB60FB68062B10D07B681B68BD
:1025EC001A687B681B6842F001021A6007E07B687E
:1025FC001B681A687B681B6842F001021A60002392
:10260C0018461437BD4680BC704700BF002C0140F3
:10261C000004004080B582B000AF78607B681B6816
:10262C001B6903F00203022B22D17B681B68DB6859
:10263C0003F00203022B1BD17B681B686FF00202B4
:10264C001A617B6801221A777B681B689B6903F00F
:10265C000303002B03D0786800F0B1F905E078682B
:10266C0000F0A4F9786800F0B3F97B6800221A77BF
:10267C007B681B681B6903F00403042B22D17B6865
:10268C001B68DB6803F00403042B1BD17B681B68FD
:10269C006FF004021A617B6802221A777B681B6850
:1026AC009B6903F44073002B03D0786800F087F922
:1026BC0005E0786800F07AF9786800F089F97B68B1
:1026CC0000221A777B681B681B6903F00803082B30
:1026DC0022D17B681B68DB6803F00803082B1BD135
:1026EC007B681B686FF008021A617B6804221A77FA
:1026FC007B681B68DB6903F00303002B03D078684D
:10270C0000F05DF905E0786800F050F9786800F0A9
:10271C005FF97B6800221A777B681B681B6903F0E2
:10272C001003102B22D17B681B68DB6803F01003AD
:10273C00102B1BD17B681B686FF010021A617B6831
:10274C0008221A777B681B68DB6903F44073002B43
:10275C0003D0786800F033F905E0786800F026F9CA
:10276C00786800F035F97B6800221A777B681B6863
:10277C001B6903F00103012B0ED17B681B68DB681E
:10278C0003F00103012B07D17B681B686FF001027A
:10279C001A617868FEF7ACFD7B681B681B6903F057
:1027AC008003802B0ED17B681B68DB6803F08003F1
:1027BC00802B07D17B681B686FF080021A617868E8
:1027CC0000F067FA7B681B681B6903F04003402B21
:1027DC000ED17B681B68DB6803F04003402B07D1EC
:1027EC007B681B686FF040021A61786800F0F9F89A
:1027FC007B681B681B6903F02003202B0ED17B68C0
:10280C001B68DB6803F02003202B07D17B681B6857
:10281C006FF020021A61786800F032FA00BF0837B6
:10282C00BD4680BD80B584B000AF786039607B68F0
:10283C0093F83C30012B01D10223B3E07B680122D9
:10284C0083F83C207B68022283F83D207B681B6860
:10285C009B68FB60FB6823F07703FB60FB6823F449
:10286C007F43FB607B681B68FA689A603B681B6857
:10287C00B3F5005F3ED0B3F5005F00F28780B3F58F
:10288C00805F00F08580B3F5805F7FD8702B1AD005
:10289C00702B7BD8602B50D0602B77D8502B3CD032
:1028AC00502B73D8402B58D0402B6FD8302B64D082
:1028BC00302B6BD8202B60D0202B67D8002B5CD012
:1028CC00102B5AD062E07B6818683B6899683B68AB
:1028DC005A683B68DB6800F05CF97B681B689B6896
:1028EC00FB60FB6843F07703FB607B681B68FA684E
:1028FC009A604EE07B6818683B6899683B685A6838
:10290C003B68DB6800F045F97B681B689A687B685C
:10291C001B6842F480429A603BE07B6818683B6815
:10292C0059683B68DB681A4600F0BCF87B681B688A
:10293C005021184600F013F92BE07B6818683B68AF
:10294C0059683B68DB681A4600F0DAF87B681B684C
:10295C006021184600F003F91BE07B6818683B689F
:10296C0059683B68DB681A4600F09CF87B681B686A
:10297C004021184600F0F3F80BE07B681A683B68BE
:10298C001B681946104600F0EAF802E000BF00E0B0
:10299C0000BF7B68012283F83D207B68002283F80E
:1029AC003C20002318461037BD4680BD80B483B050
:1029BC0000AF786000BF0C37BD4680BC704780B458
:1029CC0083B000AF786000BF0C37BD4680BC704749
:1029DC0080B483B000AF786000BF0C37BD4680BCBC
:1029EC00704780B483B000AF786000BF0C37BD4631
:1029FC0080BC704780B485B000AF786039607B686C
:102A0C001B68FB607B68254A934207D07B68B3F157
:102A1C00804F03D07B68224A934208D1FB6823F095
:102A2C007003FB603B685B68FA681343FB607B6870
:102A3C001A4A934207D07B68B3F1804F03D07B686E
:102A4C00174A934208D1FB6823F44073FB603B6840
:102A5C00DB68FA681343FB60FB6823F080023B6879
:102A6C005B691343FB607B68FA681A603B689A6881
:102A7C007B68DA623B681A687B689A627B68074AF3
:102A8C00934203D13B681A697B681A637B68012205
:102A9C005A6100BF1437BD4680BC7047002C014002
:102AAC000004004080B487B000AFF860B9607A6071
:102ABC00FB681B6A7B61FB681B6A23F00102FB68E5
:102ACC001A62FB689B693B613B6923F0F0033B6135
:102ADC007B681B013A6913433B617B6923F00A0352
:102AEC007B617A69BB6813437B61FB683A699A61C5
:102AFC00FB687A691A6200BF1C37BD4680BC704700
:102B0C0080B487B000AFF860B9607A60FB681B6A6C
:102B1C0023F01002FB681A62FB689B697B61FB68FF
:102B2C001B6A3B617B6923F470437B617B681B03ED
:102B3C007A6913437B613B6923F0A0033B61BB685B
:102B4C001B013A6913433B61FB687A699A61FB6824
:102B5C003A691A6200BF1C37BD4680BC704780B40E
:102B6C0085B000AF786039607B689B68FB60FB6860
:102B7C0023F07003FB603A68FB68134343F00703D0
:102B8C00FB607B68FA689A6000BF1437BD4680BC56
:102B9C00704780B487B000AFF860B9607A603B6072
:102BAC00FB689B687B617B6923F47F437B613B689B
:102BBC001A027B681A43BB6813437A6913437B611F
:102BCC00FB687A699A6000BF1C37BD4680BC7047B1
:102BDC0080B485B000AF786039607B6893F83C3086
:102BEC00012B01D1022341E07B68012283F83C20B8
:102BFC007B68022283F83D207B681B685B68FB6066
:102C0C007B681B689B68BB60FB6823F07003FB60F0
:102C1C003B681B68FA681343FB607B681B68FA68A7
:102C2C005A607B681B68144A934209D07B681B6806
:102C3C00B3F1804F04D07B681B68104A93420CD1CF
:102C4C00BB6823F08003BB603B685B68BA681343C6
:102C5C00BB607B681B68BA689A607B68012283F84A
:102C6C003D207B68002283F83C2000231846143753
:102C7C00BD4680BC704700BF002C014000040040E2
:102C8C0080B483B000AF786000BF0C37BD4680BC09
:102C9C00704780B483B000AF786000BF0C37BD467E
:102CAC0080BC704770B500260C4D0D4C641BA410F5
:102CBC00A64209D100F022F800260A4D0A4C641BEA
:102CCC00A410A64205D170BD55F8043B98470136B7
:102CDC00EEE755F8043B98470136F2E7402D000823
:102CEC00402D0008402D0008442D000803460244E6
:102CFC00934200D1704703F8011BF9E7F8B500BF08
:102D0C00F8BC08BC9E467047F8B500BFF8BC08BCC0
:042D1C009E46704718
:102D200002030405060708090A0B0C0D0E0F10100C
:102D3000000000000000000001020304060708096B
:042D40003101000855
:042D44000D01000875
:102D48000100000001000000010000000100000077
:102D5800F401000001000000010000000100000073
:102D680001000000F4010000010000000100000063
:102D78000100000001000000F4010000F40100005F
:102D88002C010000C8000000010000000024F4002D
:0C2D9800320000001000000001000000EC
:040000050800166970
:00000001FF
